:060000000A128A11122809
:10000800FE00030E83120313EA000408EB000A083B
:10001800EC007F08ED000A128A1115280A128A11CD
:10002800D02C85178C1EC2281A08FD00E90005305F
:100038000310E90CFF3E031D1C286908FA0007306D
:10004800FA057D0E0F39EE000130EE057D08FB0044
:100058000F30FB057A087C06031D5828EF08031D9E
:100068003C287B08F0006E0839210A128A115128B1
:100078007B08F5000730F5056E08F4007B08E900F9
:100088000310E90C0310E90C0310E90C69080139A5
:10009800A4210A128A11871107111D30F40080303B
:1000A800F500CF200A128A117A08073A031DC228E0
:1000B8007C08023A031D7B287B08093A031D6B283C
:1000C80073308316B7008C30B5002E3075287B0846
:1000D800083A031D7B2877308316B7000830B5002F
:1000E8003130F4008030F500CF200A128A11FB0865
:1000F800031D8C288316FF30B601B701B400B50084
:100108000130F4008030F500CF200A128A11C2288D
:100118007B0B97281430EF01F4008030F500CF20D6
:100128000A128A11C2287B08023A031DA5280B303F
:10013800EF01EF0AF4008030F500CF200A128A118F
:10014800C2287B080F3A031DC22885018701FF30AA
:1001580083168700850081172330F4008030F5006E
:10016800CF200A128A1163002930F4008030F5008C
:10017800CF208316850107138717811383128513F0
:100188006D08FF006C088A006B0884006A0E830003
:10019800FE0E7E0E0900203084009030F600040820
:1001A800F7004530F8007608840083170008F90046
:1001B800F60A77088400831379088000F70AF80B99
:1001C800D7287408F000203012210A128A11203032
:1001D80026210A128A11710883120313E600700897
:1001E800E500E701E80166086802031DFD286508C7
:1001F8006702031808006708203E840000080B21E6
:100208000A128A118312E70A0319E80AF728F0008C
:10021800700899008316981808000E29F200F30058
:100228007008F00A84000A128A1197240A128A11A7
:10023800F1007308F30A840071088000800803192C
:1002480008001429F200F3007308F30A84008008F8
:10025800031D282972087302F000F101F01BF10355
:10026800FF30F007031CF1030800F100F201F00869
:10027800031D40293F309229700B442903309229ED
:100288007008023A031D4A295B3092297008033A24
:10029800031D50294F3092297008043A031D56292E
:1002A800663092297008053A031D5C296D30922941
:1002B8007008063A031D62297D3092297008073AB2
:1002C800031D6829073092297008083A031D6E2912
:1002D8007F3092297008093A031D74296F309229DA
:1002E80070080A3A031D7B29F201F20A982970085E
:1002F8000B3A031D81290830922970080C3A031D16
:1003080087294030922970080D3A031D8D2909303C
:10031800922970080E3A031D94294830F200982952
:1003280070080F3A0319F2017108B63E840072088A
:10033800831380007108B43E8400720980000800AD
:10034800F700F408031DAB2907158711AD2907111C
:1003580087150330F301F201F100E830F000F121D4
:100368000A128A11770BCE298714871CBF2983129A
:1003780003130714C2298312031307100130F60070
:10038800750AC8290310F60DFF3E031DC629760815
:10039800FF3ADA29013087100710F600750AD629C6
:1003A8000310F60DFF3E031DD4297608850007309B
:1003B800F301F201F100D030F000F1210A128A11A4
:1003C800871107118710071085019430F301F20196
:1003D800F1007030F000F12108007308803AFF0046
:1003E80080307F02031D022A00307202031D022A98
:1003F80000307102031D022A01307002031C08003C
:10040800FF30F007031CF107031CF207031CF30776
:10041800F129A901AA0183160313AD012908B43EE5
:100428008400831380080319452A2908B43E8400F0
:100438000008A8002D0A222A0310A80CFF3E031D5D
:10044800202A2818292AAD0A122A2908A4002D08CA
:10045800A5000030D5220A128A112908B43E84006A
:100468000130A8002D0A3A2A0310A80DFF3E031DEB
:10047800382A280848230A128A11A0220A128A1147
:10048800122AA90A0319AA0A2A08803AFF0080300A
:100498007F02031D512A02302902031C0F2A8316EA
:1004A8000313AB01AC0183160313AD012B08B63E51
:1004B80084008313800803198D2A2B08B63E840014
:1004C8000008A8002D0A6A2A0310A80CFF3E031D85
:1004D800682A2818712AAD0A5A2A2B08A4002D0860
:1004E800A5000130D5220A128A112B08B63E8400D5
:1004F8000130A8002D0A822A0310A80DFF3E031D13
:10050800802A280848230A128A11A0220A128A116E
:100518005A2AAB0A0319AC0A2C08803AFF0080302B
:100528007F02031D992A02302B02031C572A8312CB
:100538000313871107110800A401A501A601A7014B
:10054800C12AA60A0319A70A03302702E8300319AB
:100558002602031CA52AA40A0319A50A01302502AC
:10056800F43003192402031CA82AFF30A007031C37
:10057800A107031CA207031CA3072308803AFF0056
:1005880080307F02031DD22A00302202031DD22AA6
:1005980000302102031DD22A01302002031C08006A
:1005A800B22AA700A408031DDD2A831207158711A4
:1005B800E02A83120711871583160330A301A201CD
:1005C800A100E830A0002C230A128A11270B042B63
:1005D80083128714871CF42A831203130714F72A3B
:1005E80083120313071001308316A600250AFE2A7A
:1005F8000310A60DFF3E031DFC2A2608FF3A122B06
:1006080083120130871007108316A600250A0E2BC7
:100618000310A60DFF3E031D0C2B26088312850030
:1006280083160730A301A201A100D030A0002C231B
:100638000A128A1183128711071187100710850182
:1006480083169430A301A201A1007030A0002C2BC6
:100658002308803AFF0080307F02031D3D2B0030C5
:100668002202031D3D2B00302102031D3D2B0130CA
:100678002002031C0800FF30A007031CA107031C6D
:10068800A207031CA3072C2BFF3A83138005E8302D
:10069800AD0AA000A101A201A30108008316031757
:1006A8008801890103138501FF30860087018312C1
:1006B80085018701831681130F178F160F16831272
:1006C8000618832B83161330A301A201A1008830DA
:1006D800A0000A128A11A0220A128A110030A4016D
:1006E800A5010A128A11D5220A128A110130A40121
:1006F800A5010A128A11D5220A128A11662B6430C2
:100708008316A000A101A201A3010A128A11A02246
:100718000A128A110330A001A00AA1010A128A1143
:10072800FC230A128A110230AE00AF0183160313AC
:10073800B001B10183160313B201B3018316031389
:100748003008A4003208A5002E08FF3E0A128A11BC
:10075800D5220A128A110330A301A201A100E830B0
:10076800A0000A128A11A0220A128A11B20A0319D9
:10077800B30A3308803AFF0080307F02031DC62B7E
:1007880008303202031CA22B83160313B00A031984
:10079800B10A3108803AFF0080307F02031DD62B52
:1007A80002303002031C9E2BFF3083160313AE0762
:1007B800031CAF032F08803AFF0080307F02031D1F
:1007C800E72B01302E0203189A2B83160313B40863
:1007D800031DF62BB508031DF62BB60803193708B9
:1007E8000319E92B0A128A110D220A128A11E92B20
:1007F800A2002430071387179800903083129800BE
:1008080098171813831618121815031787158B13C2
:100818000313200B142C83121816981583168C16A4
:10082800210B172C0C16A008031921080319372CC3
:100838000B178B17372C0A30990008008230990063
:100848000800403099000800CF3099000800BF30F8
:1008580099000800673099000800223099000800C4
:100868001030990008002208003A03191F2C013A99
:100878000319222C033A0319252C013A0319282CB1
:10088800073A03192B2C013A03192E2C033A0319A2
:10089800312C013A0319342C512C0800203420340F
:1008A80020342034203420342034203420342034A0
:1008B8002034203420342034203420342034203490
:1008C8002034203420342034203420342034203480
:1008D8002034203420342034203420342034203470
:1008E8002034203420342034203420342034203460
:1008F8002034203420342034203420342034203450
:10090800203420342034203420342034203420343F
:10091800203420342034203420342034203420342F
:1009280020342034003404308A000408840A820702
:10093800003443346C3465346134723420344134C7
:100948006C346C34003453346534673420344D349B
:100958006F346434653400344E3475346D34203467
:100968004D346F3464346534003441344434523483
:1009780020343034003453346C3465346534703486
:100988000034573461346B346534003441344D34A9
:10099800003450344D340034FA01FB01FC01FD01F0
:1009A800EE01EF018316D530B401B501B601B701E8
:1009B8008317FD000430FE005230FF0090308400A1
:1009C8000A128A11EF2483010A128A11522B7E0817
:1009D8008A007F088200EB240A128A118000840AA8
:1009E80004087D0603190034FF0A0319FE0AEF2CD8
:00000001FF
